:020000040800F2
:10000000303801202D0400089904000899040008E4
:1000100099040008990400089904000800000000F1
:10002000000000000000000000000000D9360008B9
:10003000990400080000000071380008C938000861
:10004000990400089904000899040008990400081C
:100050009904000899040008DD4500089904000887
:1000600099040008990400089904000899040008FC
:1000700099040008990400089904000899040008EC
:1000800099040008990400089904000899040008DC
:1000900099040008990400089904000899040008CC
:1000A00099040008990400089904000899040008BC
:1000B00099040008FD4500088547000899040008D8
:1000C000990400089904000899040008990400089C
:1000D00099040008F1060008990400089904000832
:1000E000990400089904000899040008990400087C
:1000F000990400089904000899040008990400086C
:10010000990400089904000899040008990400085B
:10011000990400089904000899040008990400084B
:10012000990400089904000899040008990400083B
:10013000990400089904000899040008990400082B
:10014000990400089904000899040008990400081B
:10015000990400089904000899040008990400080B
:1001600099040008990400089904000899040008FB
:1001700099040008990400089904000899040008EB
:10018000990400089904000880B58AB000AF78602F
:10019000396000237B6200233B620023FB61002364
:1001A000BB617B681B8A9BB27B627B6A23F44053F2
:1001B0007B623B68DB881A467B6A13437B627B6AFF
:1001C0009AB27B681A827B689B899BB27B627B6A4E
:1001D00023F4B05323F00C037B623B689A883B689E
:1001E0001B8913439AB23B685B8913439BB21A463F
:1001F0007B6A13437B627B6A9AB27B689A817B68D5
:100200009B8A9BB27B627B6A23F440737B623B6870
:100210009B891A467B6A13437B627B6A9AB27B682E
:100220009A8207F10803184600F0EAFB7B68314A1E
:10023000934203D07B68304A934202D17B693B6290
:1002400001E03B693B627B689B899BB29BB21BB21E
:10025000002B0CDA3A6A13469B0013449A001A44A6
:100260003B681B685B00B2FBF3F3FB610BE03A6A8F
:1002700013469B0013449A001A443B681B689B007A
:10028000B2FBF3F3FB61FB691C4AA2FB03235B098E
:100290001B017B627B6A1B09642202FB03F3FA6980
:1002A000D31ABB617B689B899BB29BB21BB2002BAC
:1002B0000CDABB69DB003233104AA2FB03235B0973
:1002C00003F007037A6A13437B620BE0BB691B01EF
:1002D00032330A4AA2FB03235B0903F00F037A6A55
:1002E00013437B627B6A9AB27B681A812837BD46CA
:1002F00080BD00BF00100140001401401F85EB517C
:1003000080B483B000AF78600B46FB70FB78002BA5
:1003100008D07B689B899BB243F400539AB27B68F8
:100320009A8107E07B689B899BB223F400539AB2C1
:100330007B689A810C37BD465DF8047B704700BF2F
:1003400080B483B000AF78600B467B807B88C3F3BA
:1003500008039AB27B689A800C37BD465DF8047B2F
:10036000704700BF80B487B000AF78600B467B80D9
:1003700013467B7000233B610023FB600023BB60BE
:1003800000237B617B687B617B88DBB25B09DBB22E
:100390003B617B8803F01F03FB60FB68012202FACC
:1003A00003F3BB603B69012B03D17B690C337B6199
:1003B00009E03B69022B03D17B6910337B6102E0CA
:1003C0007B6914337B617B78002B06D07B697A696B
:1003D0001168BA680A431A6006E07B697A69116895
:1003E000BA68D2430A401A601C37BD465DF8047BE8
:1003F000704700BF80B485B000AF78600B467B804B
:100400000023FB737B681B889AB27B8813409BB2E6
:10041000002B02D00123FB7301E00023FB73FB7B65
:1004200018461437BD465DF8047B704780B582B02E
:1004300000AF134B7B60134B3B6007E03B681A1D1A
:100440003A607A68111D796012681A603B680E4A3A
:100450009342F3D30D480E494FF000028842B8BFD3
:1004600040F8042BFADBDFF82C00016841F470013E
:10047000016002F0A3FB00F0B3F90837BD4680BD70
:1004800094500008000000203000002030000020C0
:100490002C30012088ED00E080B400AFFEE700BF03
:1004A00080B588B000AF1020012100F08FFB022042
:1004B000012100F04FFB26480621072202F084FAB2
:1004C00023480721072202F07FFAC023BB610223E1
:1004D0003B7702237B770023BB770123FB7707F170
:1004E00018031B48194602F0ADF94FF4E133BB6025
:1004F0000023BB810023FB8100233B820023BB82BE
:100500000C237B8207F1080312481946FFF73CFED3
:10051000104840F225510122FFF724FF0D4840F218
:1005200027710022FFF71EFF25233B7103237B71F8
:100530000023BB710123FB713B1D184603F086FFAE
:1005400004480121FFF7DCFE2037BD4680BD00BF17
:10055000000402400010014080B582B000AF786016
:10056000184B1B68184600214FF47A72002303F0E1
:100570001BFC0346002B01D100231EE010E000BF4E
:1005800011484021FFF736FF0346002BF8D07B6867
:100590005A1C7A601B789BB20B481946FFF7D0FEB5
:1005A0007B681B78002BEAD1064B1B68184600219C
:1005B0000022002303F0CEFA012318460837BD4677
:1005C00080BD00BF540000200010014080B584B001
:1005D00000AF78600B46FB700023FB731A4B1B685F
:1005E000184600214FF47A72002303F0DDFB034626
:1005F000002B01D1002323E00023FB7313E000BF95
:1006000012484021FFF7F6FE0346002BF8D0FB7B93
:100610007A6813441B789BB20C481946FFF790FE8A
:10062000FB7B0133FB73FA7BFB789A42E7D3064BE3
:100630001B68184600210022002303F08BFA0123D7
:1006400018461037BD4680BD540000200010014000
:1006500084B080B500AF07F1080E8EE80F001E4889
:10066000FFF77AFF07F108000421FFF7AFFF1B48EF
:10067000FFF772FF07F10D0318460821FFF7A6FFE9
:100680001748FFF769FF07F1160318460121FFF726
:100690009DFF1448FFF760FF07F11703184601217B
:1006A000FFF794FF1048FFF757FF07F118031846AC
:1006B0000121FFF78BFF0D48FFF74EFF07F11903EC
:1006C00018460121FFF782FF01231846BD46BDE809
:1006D000804004B0704700BFE84F0008EC4F0008AE
:1006E000F04F0008F44F0008F84F0008FC4F0008D6
:1006F00080B582B000AF0023FB71204B9B889BB27A
:10070000FB71FB790A2B14BF01230023DAB21C4BC7
:100710001B781D2B94BF01230023DBB21340DBB2F7
:10072000002B0CD0164B1B781946164AFB795354F4
:10073000134B1B780133DAB2114B1A701AE0104BCD
:100740001B781A460F4B002199540D4B00221A704A
:1007500000233B600C4B1A683B46104609491A4679
:10076000002303F0B7FA3B68002B03D0074B4FF090
:1007700080521A600837BD4680BD00BF001001409E
:100780003000002034000020E42F012004ED00E0C0
:10079000B0B58AB000AF78600F4B07F108041D4672
:1007A0000FCD0FC495E8070003C4228000237B848B
:1007B0000023BB84094B1A6807F108031046194649
:1007C0000A22002303F0C6F941F2883000F092FDBE
:1007D000642000F08FFDEDE700500008E42F0120B9
:1007E00080B58AB004AF724A3B1D07CA03C31A80A2
:1007F0000233120C1A7007F10F0300221A70013332
:1008000000221A70013300221A70013300221A707C
:10081000013300221A70013300221A7001330022C2
:100820001A70013300221A70013300221A7001334A
:1008300003201E21002203F003F902465D4B1A60DB
:100840005C4B1B68002B02D14FF0FF33ACE007205C
:100850001321002203F0F4F80246574B1A60564B5E
:100860001B68002B02D14FF0FF339DE00320BE2117
:10087000002203F0E5F80246504B1A604F4B1B680C
:10088000002B02D14FF0FF338EE00320BE21002267
:1008900003F0D6F802464A4B1A60494B1B68002BFE
:1008A00002D14FF0FF337FE0012003F00BF9024645
:1008B000444B1A60434B1B68002B02D14FF0FF33AF
:1008C00072E001F081FAFFF7EBFD03F051FE03F057
:1008D000FFFE03F01DFF3B1D1846FFF73DFE002302
:1008E00000930023019300230293002303933648CF
:1008F0003649C822002300F049FC0023009300235E
:100900000193002302930023039331483149C82205
:10091000002300F03BFC00230093002301930023FD
:100920000293002303932C482C49C822002300F093
:100930002DFC002300930023019300230293002346
:10094000039327482749C822002300F01FFC0123F6
:100950000093002301930023029300230393224872
:100960002249C822002300F011FC01230093002338
:10097000019300230293002303931D481D49C822BD
:10098000002300F003FC01230093002301930023C4
:1009900002930023039318481849C822002300F04B
:1009A000F5FB00F0D9FCFEE718461837BD4680BDC0
:1009B00068500008E42F0120E02F0120DC2F0120E7
:1009C000E82F012054000020F91D000820500008E5
:1009D000291E000828500008591E00083050000841
:1009E0008D1E00083850000891070008405000088C
:1009F000192D00084C500008C11E0008585000086E
:100A000080B489B000AF78600023BB6100237B61B4
:100A10000023FB6102233B610023FB600223BB60D8
:100A2000484B9B6803F00C03BB61BB69042B07D0E8
:100A3000082B09D0002B3FD17B68434A1A603FE066
:100A40007B68424A1A603BE03E4B5B6803F48003DC
:100A50009B0DFB603B4B5B6803F03F03BB60FB6897
:100A6000002B0DD0394ABB68B2FBF3F2354B596805
:100A700047F6C0730B409B0903FB02F3FB610CE0DC
:100A8000314ABB68B2FBF3F22E4B596847F6C0738C
:100A90000B409B0903FB02F3FB612A4B5B6803F4E9
:100AA00040331B0C01335B003B61FA693B69B2FBCD
:100AB000F3F27B681A6003E07B68234A1A6000BF88
:100AC000204B9B6803F0F003BB61BB691B09BB6152
:100AD0001F4ABB6913441B78DBB27B617B681A68D1
:100AE0007B69DA407B685A60164B9B6803F4E053DD
:100AF000BB61BB699B0ABB61154ABB6913441B7888
:100B0000DBB27B617B685A687B69DA407B689A60FC
:100B10000C4B9B6803F46043BB61BB695B0BBB611F
:100B20000B4ABB6913441B78DBB27B617B685A6854
:100B30007B69DA407B68DA602437BD465DF8047B68
:100B4000704700BF003802400024F40000127A0011
:100B50000000002080B483B000AF78600B46FB70CB
:100B6000FB78002B06D00949084B1A6B7B681343AE
:100B70000B6306E00549054B1A6B7B68DB431340AA
:100B80000B630C37BD465DF8047B704700380240AC
:100B900080B483B000AF78600B46FB70FB78002B0D
:100BA00006D00949084B1A6C7B6813430B6406E0B6
:100BB0000549054B1A6C7B68DB4313400B640C370B
:100BC000BD465DF8047B70470038024080B483B0B6
:100BD00000AF78600B46FB70FB78002B06D009490C
:100BE000084B5A6C7B6813434B6406E00549054B80
:100BF0005A6C7B68DB4313404B640C37BD465DF891
:100C0000047B70470038024080B483B000AF786046
:100C10000B46FB70FB78002B06D00949084B1A6A7B
:100C20007B6813430B6206E00549054B1A6A7B6833
:100C3000DB4313400B620C37BD465DF8047B704705
:100C40000038024080B483B000AF78600B46FB7080
:100C5000FB78002B06D00949084B5A6A7B6813437E
:100C60004B6206E00549054B5A6A7B68DB4313403B
:100C70004B620C37BD465DF8047B7047003802407C
:100C800080B586B004AF00237B6000F043FA0F4BC1
:100C90001B68002B0FD00223009300230193002335
:100CA0000293002303930A480A494FF4C8720023B1
:100CB00000F06CFA78607B68002B02D102F0CAFD6C
:100CC000FEE77B6818460837BD4680BD88000020D7
:100CD000D50D00087C50000880B588B000AFF860E2
:100CE000B9607A603B600023FB611D4B1B68002BE1
:100CF00030D0BB683B617B687B61FB68BB613B6854
:100D0000002B1CD100F0A2FF0346022B0BD1144B89
:100D10001A6807F1100310461946BA6A002302F058
:100D200019FFF86116E00E4B1A6807F11003104620
:100D300019460022002302F00DFFF8610AE0084B7B
:100D40001A6807F11003104619463A68002302F0AA
:100D5000C1FFF861FB6918462037BD4680BD00BF62
:100D60008800002080B586B002AF78603960184BEB
:100D70001B68DB68DB68FB60FB680433184601F026
:100D8000F3FEFB68DB69012B1BD1FB689A697B686A
:100D90001344F86819463A687B6800F0A7F80346E0
:100DA000012B0ED100230093F86800217A680023FC
:100DB000FFF792FFB860BB68002B02D102F04AFD3A
:100DC000FEE7FB685B6AF86898471037BD4680BD50
:100DD0008000002080B584B000AF786007F1080380
:100DE000184600F03FF8F860BB68F868194600F054
:100DF00003F800F0BDF8F1E780B584B000AF78608B
:100E0000396000F0E1FA07F10803184600F04EF8E7
:100E1000F860BB68002B1ED13B68002B0AD17A68B2
:100E2000FB689A4206D800F0DDFA7868F968FFF7A7
:100E300099FF12E00A4B19687A68FB68D31A0846D2
:100E4000194603F019FA00F0CDFA0346002B04D13D
:100E500002F0C8FC01E000F0C5FA1037BD4680BDC5
:100E60008800002080B485B000AF78600E4B1B680E
:100E70001B68002B0CBF01230023DBB21A467B68E2
:100E80001A607B681B68002B05D1074B1B68DB6869
:100E90001B68FB6001E00023FB60FB681846143709
:100EA000BD465DF8047B70478000002080B584B0AB
:100EB00000AF786000F01CFBF8600B4B1B68FA6811
:100EC0009A4205D200F0CEF87B6801221A6002E057
:100ED0007B6800221A60044AFB681360FB681846AE
:100EE0001037BD4680BD00BF8C00002080B586B0A5
:100EF00000AFF860B9607A603B6000237B61FB68FB
:100F0000BA685A60FB68FA681A61BA687B689A42E4
:100F100012D87A683B68D21AFB689B699A4202D35E
:100F200001237B611BE0104B1A68FB6804331046F9
:100F3000194601F0E1FD12E07A683B689A4206D258
:100F4000BA683B689A4202D301237B6107E0074BF2
:100F50001A68FB6804331046194601F0CDFD7B6921
:100F600018461837BD4680BD840000208000002050
:100F700080B58AB002AF63E0BB68B3F1FF3F5FD0DA
:100F80003B69FB61FB695B69002B04D0FB6904339F
:100F9000184601F0E9FD3B1D1846FFF787FFB861D1
:100FA000BB68032B4BD801A252F823F0BD0F0008F9
:100FB000411000080D10000837100008FA68FB699E
:100FC0009B691A44FB68F8691146BA69FFF78EFFFE
:100FD0000346012B19D1FB695B6AF8699847FB69E5
:100FE000DB69012B11D1FA68FB699B691A44002364
:100FF0000093F86900210023FFF76EFE78617B699A
:10100000002B02D102F026FCFEE719E0FA68FB692A
:101010009A61FB699B69002B02D102F01BFCFEE781
:10102000FB699A69BB691344F8691946BA69BB69D7
:10103000FFF75CFF04E0F86903F08CFC00E000BF00
:10104000074B1A6807F108031046194600220023CF
:1010500002F0AAFE0346002B8ED12037BD4680BD8C
:101060008800002080B588B002AF3DE0274B1B68A8
:10107000DB681B687B61254B1B68DB68DB683B61B9
:101080003B690433184601F06FFD3B695B6A3869C0
:1010900098473B69DB69012B26D13B699A697B69DB
:1010A0001344FB60FA687B699A420ED93B69FA687F
:1010B0005A603B693A691A61144B1A683B690433F8
:1010C0001046194601F018FD0EE000230093386920
:1010D00000217A690023FFF7FFFDB860BB68002B91
:1010E00002D102F0B7FBFEE7084B1B681B68002B20
:1010F000BCD1064B1B687B60054B1B68034A136021
:10110000034A7B6813601837BD4680BD800000200D
:101110008400002080B500AF02F074FB154B1B6803
:10112000002B24D1144801F097FC144801F094FCE2
:10113000134B114A1A60134B104A1A600A200C21F3
:10114000002202F07DFC02460A4B1A60094B1B6824
:10115000002B02D102F07EFBFEE7064B1B68002B42
:1011600005D0044B1B681846074903F05DF802F0F0
:1011700059FB80BD88000020580000206C00002032
:1011800080000020840000208450000880B58AB0D0
:1011900002AFF860B9603B601346FB80FB68002B30
:1011A00002D102F057FBFEE7BB6A042B02D902F022
:1011B00051FBFEE7FB881846396B00F0D1FCB861A3
:1011C000BB69002B72D0BB691A6BFB8803F18043AB
:1011D000013B9B0013447B617B6923F007037B6128
:1011E0007B6903F00703002B02D002F033FBFEE71C
:1011F000FB880093B869B968BA6A7B6B00F0BEFBE4
:101200007869F9683A6802F025FA0246BB691A6003
:10121000FB6A002B02D0FB6ABA691A6002F0F2FA8C
:101220002E4B1B6801332D4A13602D4B1B68002B7E
:1012300009D12B4ABB691360284B1B68012B0FD1C6
:1012400000F0E4FB0CE0274B1B68002B08D1244B7B
:101250001B68DA6ABB6A9A4202D8214ABB691360EA
:10126000214B1B680133204A13601F4B1A68BB696E
:101270001A64BB69DA6A1D4B1B689A4203D9BB69C1
:10128000DB6A1A4A1360BB69DA6A13469B0013448F
:101290009B00174A1A44BB6904331046194601F0F3
:1012A00007FC0123FB6102F0BDFA02E04FF0FF33BF
:1012B000FB61FB69012B0BD10A4B1B68002B07D08C
:1012C000074B1B68DA6ABB6A9A4201D202F08AFABB
:1012D000FB6918462037BD4680BD00BF5401002081
:1012E0009000002060010020740100205C010020BB
:1012F0009400002080B584B000AF78600023FB60CC
:101300007B68002B19D0114B1B68002B02D002F018
:10131000A1FAFEE700F058F80D4B1A687B681344F9
:10132000BB600C4B1B680433184601F01DFCB86809
:1013300000F0E0FB00F056F8F860FB68002B01D1EC
:1013400002F050FA1037BD4680BD00BF6401002096
:10135000580100209000002080B586B004AF002323
:101360000093002301930023029300230393124868
:101370001249C8220023FFF709FF78607B68012B20
:1013800002D1FFF77DFC78607B68012B0AD102F067
:1013900061FA0B4B01221A600A4B00221A6002F01C
:1013A000B9F905E07B68002B02D102F053FAFEE7A1
:1013B0000837BD4680BD00BF5D1900088C5000088D
:1013C000600100205801002080B400AF044B1B686E
:1013D0000133034A1360BD465DF8047B704700BFCC
:1013E0006401002080B582B000AF00237B60384BE1
:1013F0001B68002B02D102F02DFAFEE702F002FA80
:10140000334B1B68013B324A1360314B1B68002B86
:1014100056D1304B1B68002B52D02FE02E4BDB688F
:10142000DB683B603B681833184601F09DFB3B6866
:101430000433184601F098FB3B68DA6A274B1B68B7
:101440009A4203D93B68DB6A244A13603B68DA6A34
:1014500013469B0013449B00214A1A443B68043303
:101460001046194601F024FB3B68DA6A1D4B1B68E5
:10147000DB6A9A4202D31C4B01221A60164B1B688E
:10148000002BCBD1194B1B68002B11D00CE000F0C6
:1014900041F80346002B02D0134B01221A60134B74
:1014A0001B68013B114A1360104B1B68002BEED1E7
:1014B0000D4B1B68012B03D101237B6002F092F9D5
:1014C00002F0B0F97B6818460837BD4680BD00BF02
:1014D0006401002054010020280100205C0100204C
:1014E00094000020900000206C0100206801002082
:1014F00080B582B000AF02F085F9054B1B687B60B8
:1015000002F090F97B6818460837BD4680BD00BFE1
:101510005801002080B586B000AF00237B614E4BA0
:101520001B68002B40F087804C4B1B6801334B4AF3
:1015300013604A4B1B683B613B69002B18D1484B39
:101540001B681B68002B02D002F084F9FEE7444BB5
:101550001B68FB60434B1B68414A1360414AFB68B0
:101560001360414B1B6801333F4A136000F03AFBA4
:101570003E4B1B683A699A424ED3394B1B681B6835
:10158000002B01D1012300E00023002B04D0374BB6
:101590004FF0FF321A603FE0314B1B68DB68DB68BD
:1015A000BB60BB685B687B603A697B689A4203D228
:1015B0002E4A7B6813602FE0BB680433184601F0A5
:1015C000D3FABB689B6A002B04D0BB68183318465B
:1015D00001F0CAFABB68DA6A254B1B689A4203D944
:1015E000BB68DB6A224A1360BB68DA6A13469B0059
:1015F00013449B001F4A1A44BB6804331046194623
:1016000001F056FABB68DA6A1B4B1B68DB6A9A4228
:1016100001D301237B61B0E7174B1B68DA6A1549D8
:1016200013469B0013449B000B441B68012B07D9F6
:1016300001237B6104E0114B1B6801330F4A1360E7
:101640000F4B1B68002B01D001237B617B6918467F
:101650001837BD4680BD00BF64010020580100203E
:101660002001002024010020700100201000002033
:101670005C01002094000020900000206801002000
:101680006C01002080B582B000AF224B1B68002B9C
:1016900003D0214B01221A6038E01F4B00221A6050
:1016A0000BE01E4B1B68002B02D102F0D3F8FEE7C3
:1016B0001A4B1B68013B194A1360184B1A681849EA
:1016C00013469B0013449B000B441B68002BE8D07F
:1016D000124B1A6813469B0013449B00104A134494
:1016E0007B607B685B685A687B685A607B685A6875
:1016F0007B6808339A4204D17B685B685A687B68D0
:101700005A607B685B68DB68064A13600837BD4631
:1017100080BD00BF640100206C0100205C0100203E
:10172000940000209000002080B584B000AF786065
:1017300039607B68002B02D102F08CF8FEE70C4B7D
:101740001B6818337868194601F0D6F9084B1B68F6
:101750000433184601F008FA064B1A683B68134434
:10176000FB60F86800F0C6F91037BD4680BD00BFC9
:10177000900000205801002080B584B000AF786050
:1017800039607B68002B02D102F064F8FEE70C4B55
:101790001B6818337868194601F08AF9084B1B68F2
:1017A0000433184601F0E0F9064B1A683B6813440D
:1017B000FB60F86800F09EF91037BD4680BD00BFA1
:1017C000900000205801002080B584B000AF786000
:1017D0007B68DB68DB68BB60BB68002B02D102F072
:1017E00039F8FEE7BB681833184601F0BDF91E4B07
:1017F0001B68002B1DD1BB680433184601F0B4F9F7
:10180000BB68DA6A194B1B689A4203D9BB68DB6A6A
:10181000164A1360BB68DA6A13469B0013449B00A8
:10182000134A1A44BB6804331046194601F040F9C4
:1018300005E0BB6818330F48194601F039F9BB6859
:10184000DA6A0D4B1B68DB6A9A4205D90123FB60FB
:101850000A4B01221A6001E00023FB60FB68184676
:101860001037BD4680BD00BF640100205C01002030
:101870009400002028010020900000206C0100202E
:1018800080B582B000AF78607B68002B02D101F098
:10189000E1FFFEE7054B1A687B681A60044B1A6883
:1018A0007B685A600837BD4680BD00BF70010020CC
:1018B0005801002080B584B000AF786039607B6843
:1018C000002B02D101F0C6FFFEE73B68002B02D1DE
:1018D00001F0C0FFFEE701F095FF184B1B68BB60ED
:1018E0007B681A68164B1B689A4207D07B685A6857
:1018F000BB689A4202D80123FB6018E07B685B68F2
:10190000BA68D21A3B681B689A420ED23B681A68C2
:101910007B685968BB68CB1A1A443B681A607868C0
:10192000FFF7AEFF0023FB6001E00123FB6001F045
:1019300079FFFB6818461037BD4680BD580100206E
:101940007001002080B400AF034B01221A60BD4635
:101950005DF8047B704700BF6C01002080B582B049
:1019600000AF786000F08CF8034B1B68012B01D9A5
:1019700001F038FFF6E700BF9400002080B586B084
:1019800000AFF860B9607A603B6000237B6113E0D0
:10199000BA687B6913441978FA687B691344303359
:1019A0000A461A71BA687B6913441B78002B00D170
:1019B00005E07B6901337B617B69092BE8D9FB6812
:1019C000002283F83D207B68042B01D904237B602F
:1019D000FB687A68DA62FB687A689A64FB680433A9
:1019E000184601F059F8FB681833184601F054F80E
:1019F000FB68FA681A617B68C3F10502FB689A61AB
:101A0000FB68FA685A621837BD4680BD80B582B05F
:101A100000AF00237B600CE07A6813469B00134400
:101A20009B00104A1344184601F016F87B680133F6
:101A30007B607B68042BEFD90B4801F00DF80B4855
:101A400001F00AF80A4801F007F80A4801F004F822
:101A5000094B054A1A60094B044A1A600837BD460B
:101A600080BD00BF94000020F80000200C01002081
:101A7000280100203C01002020010020240100203A
:101A800080B582B000AF28E0FFF79EFC164B1B68C4
:101A9000002B0CBF01230023DBB27B60FFF7A2FC0D
:101AA0007B68002B19D101F0ADFE0F4BDB68DB68C2
:101AB0003B603B680433184601F056F80B4B1B683B
:101AC000013B0A4A13600A4B1B68013B084A13603A
:101AD00001F0A8FE386800F075F8054B1B68002B74
:101AE000D2D10837BD4680BD3C0100205401002002
:101AF0005001002080B582B000AF7860134B1B68A6
:101B00007A685A60124B1B687A689A4209D2114B64
:101B10001A680E4B1B6804331046194600F0ECFFA0
:101B200010E00D4B1A68094B1B6804331046194628
:101B300000F0E2FF094B1B687A689A4202D2074A1A
:101B40007B6813600837BD4680BD00BF9000002051
:101B50005801002024010020200100201000002056
:101B600080B584B000AF03463960FB804C2002F0A2
:101B700063FEF860FB68002B1FD03B68002B06D18A
:101B8000FB889B00184602F057FE034600E03B68C6
:101B9000FA681363FB681B6B002B05D1F86802F031
:101BA000D9FE0023FB6008E0FB681A6BFB889B00F2
:101BB0001046A5211A4603F09BF9FB68184610371A
:101BC000BD4680BD80B582B000AF78607B681B6B7E
:101BD000184602F0BFFE786802F0BCFE0837BD462A
:101BE00080BD00BF80B483B000AF0E4B1B681B6884
:101BF000002B01D1012300E00023002B04D00A4B6D
:101C00004FF0FF321A6008E0064B1B68DB68DB68A8
:101C10007B607B685B68044A13600C37BD465DF8E7
:101C2000047B7047200100201000002080B483B0A6
:101C300000AF054B1B687B607B6818460C37BD46C0
:101C40005DF8047B704700BF9000002080B483B033
:101C500000AF0B4B1B68002B02D101237B6008E017
:101C6000084B1B68002B02D102237B6001E000239C
:101C70007B607B6818460C37BD465DF8047B704777
:101C8000600100206401002080B584B000AF78605E
:101C90007B68FB607B68002B4AD0FB68DA6A264BC6
:101CA0001B68DB6A9A4243D2FB689B69002B06DB08
:101CB000214B1B68DB6AC3F10502FB689A61FB6874
:101CC0005969FB68DA6A13469B0013449B001B4A60
:101CD0001344994201D1012300E00023002B22D0BC
:101CE000FB680433184600F03FFF134B1B68DA6AA9
:101CF000FB68DA62FB68DA6A114B1B689A4203D907
:101D0000FB68DB6A0E4A1360FB68DA6A13469B00C5
:101D100013449B00094A1A44FB68043310461946D1
:101D200000F0C6FE04E0044B1B68DA6AFB68DA6266
:101D30001037BD4680BD00BF9000002094000020F9
:101D40005C01002080B584B000AF78607B68FB60E8
:101D50007B68002B30D0FB68DA6AFB689B6C9A4288
:101D60002AD0FB680433184600F0FEFEFB689A6C2C
:101D7000FB68DA62FB689B69002B05DBFB68DB6AAA
:101D8000C3F10502FB689A61FB68DA6A0C4B1B68B9
:101D90009A4203D9FB68DB6A094A1360FB68DA6A76
:101DA00013469B0013449B00064A1A44FB68043305
:101DB0001046194600F07CFE1037BD4680BD00BFBE
:101DC0005C0100209400002080B582B000AF0820A4
:101DD0000121FEF7BFFE4FF470433B6002237B718D
:101DE00001233B713B460348194600F02BFD0837A1
:101DF000BD4680BD000C024080B582B000AF786067
:101E000008484FF4805100F0ABFD0A20FFF772FA4A
:101E100004484FF4805100F0B1FD0A20FFF76AFA40
:101E2000EEE700BF000C024080B582B000AF7860E2
:101E300008484FF4005100F093FD6420FFF75AFA70
:101E400004484FF4005100F099FD6420FFF752FA66
:101E5000EEE700BF000C024080B582B000AF7860B2
:101E600009484FF4804100F07BFD4FF4FA70FFF712
:101E700041FA05484FF4804100F080FD4FF4FA70BC
:101E8000FFF738FAECE700BF000C024080B582B0E3
:101E900000AF786009484FF4004100F061FD4FF455
:101EA0007A70FFF727FA05484FF4004100F066FD0D
:101EB0004FF47A70FFF71EFAECE700BF000C024007
:101EC00080B5CAB000AF3B1D18600023C7F82431AD
:101ED0000023A7F812310023C7F818310023C7F8F0
:101EE0001431D44B00221A70D24B1B78072B00F20E
:101EF0006E8301A252F823F0191F0008C7210008C1
:101F00004D2400089B240008CF2400080B2500085E
:101F10004725000883250008C74B1A6807F1CC0342
:101F2000104619466422002301F03EFF0346002BB1
:101F300003D1C04B00221A7044E10023C7F81431CA
:101F40003BE1D7F81831042B00F2318101A252F89D
:101F500023F000BF691F0008DD1F000829200008CA
:101F60009D200008E920000807F1CC02D7F81431C1
:101F700013441B78492B30D1D7F81431013307F5BE
:101F80009472134413F85C3C442B26D1D7F81431D7
:101F90000233C7F814310023C7F8203115E0D7F811
:101FA0002021D7F81431134407F59472134413F821
:101FB0005C1C07F1FC02D7F8203113440A461A7062
:101FC000D7F820310133C7F82031D7F82031032B5F
:101FD000E5DD0123C7F81831EAE0E9E007F1CC02BA
:101FE000D7F8143113441B78522B1CD1D7F8143175
:101FF000013307F59472134413F85C3C542B12D14F
:10200000D7F814310233C7F8143107F1CC02D7F8EE
:10201000143113441B78303BDBB287F808310223BC
:10202000C7F81831C4E0C3E007F1CC02D7F8143187
:1020300013441B78442B30D1D7F81431013307F502
:102040009472134413F85C3C542B26D1D7F8143106
:102050000233C7F814310023C7F8203115E0D7F850
:102060002021D7F81431134407F59472134413F860
:102070005C1C07F1FC02D7F8203113440A461A71A0
:10208000D7F820310133C7F82031D7F82031072B9A
:10209000E5DD0323C7F818318AE089E007F1CC02B7
:1020A000D7F8143113441B78442B1CD1D7F81431C2
:1020B000013307F59472134413F85C3C4C2B12D196
:1020C000D7F814310233C7F8143107F1CC02D7F82E
:1020D000143113441B78303BDBB287F80B310423F7
:1020E000C7F8183164E063E007F1CC02D7F8143187
:1020F00013441B78452B59D1D7F81431013307F518
:102100009472134413F85C3C522B4FD1D7F814311E
:102110000233C7F81431002387F80931002387F808
:102120000A31002387F80C31002387F80D31002392
:1021300087F80E31002387F80F3107F1CC02D7F86A
:10214000143113441B78313B052B27D801A252F8D8
:1021500023F000BF6D210008752100087D210008D3
:10216000852100088D21000895210008012387F8AA
:102170000C3114E0012387F8093110E0012387F8BE
:102180000D310CE0012387F80E3108E0012387F8B8
:102190000F3104E0012387F80A3100E000BF00237B
:1021A000C7F81831234B01221A7001E000E000BF8C
:1021B000D7F814310133C7F81431D7F814311D2B77
:1021C0007FF7BFAE04E207F1EC0207F1FC03104613
:1021D000194600F003FA97F8ED301A4607F10C03A0
:1021E000002199540023C7F820311AE097F8EE3007
:1021F0001A46D7F82031134497F8FD201146D7F836
:102200002021C2F1020241FA02F2D2B202F001022E
:10221000D1B207F10C02D154D7F820310133C7F8FD
:102220002031D7F82031022BE0DD0023C7F8203120
:1022300020E000BF182F0120E42F012097F8EE3096
:102240001A46D7F820311344033397F8FC2011467F
:10225000D7F82021C2F1070241FA02F2D2B202F00D
:102260000102D1B207F10C02D154D7F82031013369
:10227000C7F82031D7F82031072BDFDD97F8EF3092
:102280001A4697F8081107F10C03995497F8F030A3
:102290001A4607F10C030021995497F8F1301A46B9
:1022A00007F10C03002199540023C7F820311AE0EC
:1022B00097F8F2301A46D7F82031134497F80B21DB
:1022C0001146D7F82021C2F1030241FA02F2D2B23C
:1022D00002F00102D1B207F10C02D154D7F820313B
:1022E0000133C7F82031D7F82031032BE0DD00237C
:1022F000C7F824310023C7F81C3130E00023C7F8A9
:10230000203123E097F8F3301A46D7F824311344EC
:1023100007F1FC01D7F81C210A4412791146D7F8BD
:102320002021C2F1070241FA02F2D2B202F0010208
:10233000D1B207F10C02D154D7F824310133C7F8D8
:102340002431D7F820310133C7F82031D7F82031B4
:10235000072BD7DDD7F81C310133C7F81C3197F8AC
:10236000EC301A46D7F81C319A42C7DC0023C7F874
:10237000203119E097F8F4301A46D7F82031134489
:10238000B7F81211D7F8202101FA02F2002A14BF7F
:1023900001220022D2B2114607F10C02D154D7F823
:1023A00020310133C7F82031D7F820310E2BE1DD81
:1023B00097F8F5301A4607F10C030121995497F864
:1023C000F6301A4607F10C030121995497F8F730BB
:1023D0001A4607F10C03012199540023C7F8203154
:1023E0000EE097F8F8301A46D7F82031134407F179
:1023F0000C020121D154D7F820310133C7F8203124
:10240000D7F82031062BECDD0023C7F820310EE091
:1024100097F8F9301A46D7F82031134407F10C0227
:102420000121D154D7F820310133C7F82031D7F832
:102430002031022BECDD97F8FA301A4607F10C0335
:10244000FF219954634B02221A70C1E097F80F31B3
:10245000012B1ED10023C7F824310BE007F10C0239
:10246000D7F82431134400221A70D7F824310133ED
:10247000C7F82431D7F82431BD2BEFDD07F10C026A
:10248000D7F824311344FF221A70524B07221A70D6
:102490009EE0504B03221A709AE097F80931012B05
:1024A00011D197F8EF301A4697F80831002B0CBF7E
:1024B00001230023DBB2194607F10C039954454B65
:1024C00007221A7084E0434B04221A7080E097F8C8
:1024D0000D31012B15D197F8F430013397F8F42022
:1024E000013207F10C018A5C002A0CBF0122002294
:1024F000D2B2114607F10C02D154364B07221A70A2
:1025000066E0344B05221A7062E097F80A31012B1D
:1025100015D197F8F0301A4697F8F030194607F1C0
:102520000C035B5C002B0CBF01230023DBB21946BC
:1025300007F10C039954274B07221A7048E0254BEA
:1025400006221A7044E097F80C31012B15D197F848
:10255000F2301A4697F8F230194607F10C035B5C2B
:10256000002B0CBF01230023DBB2194607F10C033B
:102570009954184B07221A702AE0164B07221A703A
:1025800026E097F80E31012B08D107F10C0207F174
:10259000EC031046194600F0EFF807E007F10C02D3
:1025A00007F1EC031046194600F08AF80A4B1A6846
:1025B00007F10C03104619464FF0FF32002301F0DB
:1025C000C9FA02F0CBF8034B00221A7000E000BFFA
:1025D0008AE400BF182F0120E82F012080B483B0C7
:1025E00000AF786039607B6800225A707B685B7846
:1025F0000133DAB27B689A707B689B780B33DAB26E
:102600007B68DA707B68DB780133DAB27B681A7139
:102610007B681B790133DAB27B685A717B685B791E
:102620000133DAB27B689A713B68DA7B7B681A7097
:102630003B681B7B012B09D17B680022DA717B6828
:102640009B790433DAB27B681A720FE07B689B795E
:102650000433DAB27B68DA717B68DA793B68DB7B5A
:10266000DB00DBB21344DAB27B681A727B681B7A38
:102670000F33DAB27B685A727B685B7A0133DAB265
:102680007B689A727B689B7A0133DAB27B68DA7274
:102690007B68DB7A0133DAB27B681A737B681B7B59
:1026A0000733DAB27B685A737B685B7B0333DAB239
:1026B0007B689A730C37BD465DF8047B704700BF9A
:1026C00080B487B000AF7860396000237B613B68DD
:1026D0005B7AFB723B689B7BBB7200233B6141E0F2
:1026E0003B697A6813441A783B69013379680B4473
:1026F0001B789A4203D17B6901337B6101E000239F
:102700007B617B69032B2ADDBB7AFB600BE0FB68F6
:1027100001337A681344FA6879680A4412781A70A7
:10272000FB68013BFB603B695A1CFB689A42EEDB8D
:102730003B6902337A6813443A69013279680A4482
:102740001278002A0CBF01220022D2B21A70BB7A82
:102750000133BB72FB7A0133FB7200237B613B695F
:1027600001333B61FB7A5A1E3B699A42B8DC1C3745
:10277000BD465DF8047B704780B487B000AF7860D9
:10278000396000237B613B685B7AFB723B689B7B13
:10279000BB7200237B7200233B6149E03B697A688E
:1027A00013441A783B69013379680B441B789A42C9
:1027B00003D17B6901337B6101E000237B617B698D
:1027C000032B32DD7B7A002B04D101237B720023A3
:1027D0007B612AE0BB7AFB600BE0FB6801337A681F
:1027E0001344FA6879680A4412781A70FB68013B4E
:1027F000FB603B695A1CFB689A42EEDB3B69023383
:102800007A6813443A69013279680A441278002AD6
:102810000CBF01220022D2B21A70BB7A0133BB7204
:10282000FB7A0133FB7200237B613B6901333B611F
:10283000FB7A5A1E3B699A42B0DC1C37BD465DF8F4
:10284000047B704780B487B000AF786039600023A4
:102850007B6100233B610023FB6000237B6176E00A
:102860007B69012202FA03F33B613B681A683B690A
:102870001340FB60FA683B699A4265D17B681A682D
:102880007B695B00194603238B40DB431A407B685E
:102890001A607B681A683B681B7919467B695B0084
:1028A00001FA03F31A437B681A603B681B79012B1A
:1028B00003D03B681B79022B2ED17B689A687B6919
:1028C0005B00194603238B40DB431A407B689A6008
:1028D0007B689A683B685B7919467B695B0001FA03
:1028E00003F31A437B689A607B685A687B699BB2E2
:1028F000194601238B40DB431A407B685A607B6892
:102900005B683A68927911467A6992B201FA02F2EA
:1029100092B21A437B685A607B68DA687B699BB223
:102920005B00032101FA03F3DB431A407B68DA60A2
:102930007B68DA683B68DB7919467B695B0001FAE2
:1029400003F31A437B68DA607B6901337B617B693F
:102950000F2B85D91C37BD465DF8047B704700BF3F
:1029600080B483B000AF78600B467B807B687A8848
:102970001A830C37BD465DF8047B704780B483B082
:1029800000AF78600B467B807B687A885A830C376F
:10299000BD465DF8047B704780B483B000AF7860BB
:1029A0000B467B8013467B707B78002B03D07B68C3
:1029B0007A881A8302E07B687A885A830C37BD468E
:1029C0005DF8047B704700BF80B485B000AF7860CD
:1029D0000B467B8013467B700023FB600023BB60AB
:1029E0007B787A8802F0070292009340FB607B8834
:1029F000DB089BB218467B88DB089BB21A467B68D3
:102A0000083253F822207B8803F007039B00194605
:102A10000F238B40DB4302EA03017B6800F10802CD
:102A200043F822107B88DB089BB21A467B68083289
:102A300053F82220FB681343BB607B88DB089BB202
:102A40001A467B680832B96843F822101437BD462D
:102A50005DF8047B704700BF80B483B000AF78603E
:102A60007B6803F108027B685A607B684FF0FF3295
:102A70009A607B6803F108027B68DA607B6803F187
:102A800008027B681A617B6800221A600C37BD4619
:102A90005DF8047B704700BF80B483B000AF7860FE
:102AA0007B6800221A610C37BD465DF8047B7047D5
:102AB00080B485B000AF786039607B685B68FB608C
:102AC0003B68FA685A60FB689A683B689A60FB68E2
:102AD0009B683A685A60FB683A689A603B687A6813
:102AE0001A617B681B685A1C7B681A601437BD46E4
:102AF0005DF8047B704700BF80B485B000AF78609C
:102B000039603B681B68BB60BB68B3F1FF3F03D112
:102B10007B681B69FB600CE07B680833FB6002E0AC
:102B2000FB685B68FB60FB685B681A68BB689A427D
:102B3000F6D9FB685A683B685A603B685B683A683C
:102B40009A603B68FA689A60FB683A685A603B682A
:102B50007A681A617B681B685A1C7B681A60143794
:102B6000BD465DF8047B704780B485B000AF7860E7
:102B70007B681B69FB607B685B687A6892689A6017
:102B80007B689B687A6852685A60FB685A687B6801
:102B90009A4203D17B689A68FB685A607B6800227E
:102BA0001A61FB681B685A1EFB681A60FB681B6889
:102BB00018461437BD465DF8047B704780B500AFFA
:102BC000154A154BD3F8883043F47003C2F88830A7
:102BD000124A124B1B6843F0010313600F4B002293
:102BE0009A600E4A0D4B1B6823F0847323F48033E4
:102BF00013600A4B0A4A5A60084A084B1B6823F4C0
:102C000080231360054B0022DA6000F00BF8024BC2
:102C10004FF000629A6080BD00ED00E00038024095
:102C20001030002480B483B000AF00237B60002309
:102C30003B60354A344B1B6843F480331360324B9E
:102C40001B6803F400333B607B6801337B603B68A7
:102C5000002B03D17B68B3F5A06FF0D12A4B1B6822
:102C600003F40033002B02D001233B6001E000237A
:102C70003B603B68012B42D1234A234B1B6C43F042
:102C800080531364214A214B1B6843F48043136033
:102C90001D4A1D4B9B6893601B4A1B4B9B6843F46A
:102CA00000439360184A184B9B6843F4A053936009
:102CB000154B174A5A60144A134B1B6843F0807334
:102CC000136000BF104B1B6803F00073002BF9D09A
:102CD000104B40F205621A600B4A0B4B9B6823F0C5
:102CE00003039360084A084B9B6843F00203936018
:102CF00000BF054B9B6803F00C03082BF9D10C3780
:102D0000BD465DF8047B704700380240007000400B
:102D100008544007003C024080B5ECB002AF3B1DB8
:102D200018600023C7F88C3107F5C87107F1CC0291
:102D300007F10C03084611461A4600F097F80023E5
:102D4000C7F8A431474B1B78052B00F2888001A2FD
:102D500052F823F06D2D0008992D0008C72D0008AA
:102D6000F52D0008232E00083B2E00083E4B1A6864
:102D700007F10C03104619464FF0FF32002301F013
:102D800013F80346012B03D1364B01221A7067E07A
:102D9000344B00221A7063E007F10C03184602F06E
:102DA000F5F80346C7F8A431D7F8A431BD2B03DCEE
:102DB0002C4B02221A7053E0012387F89E31294BD5
:102DC00000221A704CE007F10C0207F1CC03104608
:102DD0001946D7F8A42100F0A3F8034687F89F31DD
:102DE00097F89F31002B01D1032200E000221D4BF8
:102DF0001A7035E007F5C87007F10C0107F1CC0235
:102E000007F5C67300F0E0F8034687F89E3197F89F
:102E10009E31002B01D1042200E00022114B1A70D8
:102E20001EE007F1CC03184600F0BCFA034687F811
:102E3000A0310C4B05221A7012E06B4607F5D072D8
:102E40001268114619800233120C1A7007F5C87304
:102E50000FCBFDF7FDFB034B00221A7000E000BF13
:102E600070E700BFDA2F0120DC2F012080B487B08B
:102E700000AFF860B9607A6000237B6100237B615A
:102E800007E0FA687B69134400221A707B690133FA
:102E90007B617B69032BF4DD00237B6107E0FA682B
:102EA0007B69134400225A717B6901337B617B6922
:102EB000072BF4DDFB6800225A73FB6800221A71AD
:102EC000FB6800229A73FB680022DA73FB68002219
:102ED0001A74FB6800225A74FB6800229A7400235B
:102EE0007B6107E07B69BA68134400221A707B6932
:102EF00001337B617B69BD2BF4DD00237B6107E03F
:102F00007B697A68134400221A707B6901337B6104
:102F10007B69BD2BF4DD1C37BD465DF8047B704733
:102F200080B48BB000AFF860B9607A6000237B6238
:102F300000233B623023FB770023BB610023FB753A
:102F400000233B6233E07B6A042B1EDCBB69BA685A
:102F500013443A6AF9680A4412781A70BB6901335B
:102F6000BB617B6A01337B623B6AFA6813441B785E
:102F7000FA7F9A4218D001237B62FB7F312B01D16B
:102F8000302300E03123FB770EE03B6AFA681344FC
:102F90001B78FA7F9A4205D10123FB757B680D33BC
:102FA0003B6201E000237B623B6A01333B627B684A
:102FB000A3F10D023B6A9A42C5DCFB7D18462C3713
:102FC000BD465DF8047B704780B5A4B000AFF860E3
:102FD000B9607A603B600023C7F88C30002387F823
:102FE0008B30786801F0D2FF0346C7F884300023A5
:102FF00087F88A300023C7F8803000233B7700230E
:103000007B770023BB770023FB7700233B750023EE
:103010007B750023BB750023FB7500233B760023E3
:103020007B760023BB760023FB760023C7F88C3029
:103030000BE007F12002D7F88C30134430221A70CD
:10304000D7F88C300133C7F88C30D7F88C301F2B71
:10305000EFDD0023C7F88C300BE007F14002D7F812
:103060008C30134430221A70D7F88C300133C7F8F3
:103070008C30D7F88C303F2BEFDD0023C7F88C3035
:1030800019E0D7F88C300F331A467B6813441B784D
:10309000A3F13002D7F88C30C3F1030302FA03F333
:1030A000DAB297F88A30134487F88A30D7F88C3030
:1030B0000133C7F88C30D7F88C30032BE1DD97F85B
:1030C0008A30DB002233C7F88030D7F88020D7F869
:1030D00084309A4256D17B680D331B78302B51D106
:1030E0007B680E331B78302B4CD17B685A1C07F160
:1030F00020031533184611460B2201F05FFE97F8A6
:103100008A30C3F10803DB0007F14002D1187B6865
:1031100003F1130297F88A30DB00084611461A467D
:1031200001F04CFE07F1200207F11C03104619467E
:1031300000F092F8FB681A4607F11C03186810604B
:1031400007F1400207F114031046194600F0C2F8D7
:10315000FB6805331A4607F1140303CB1060516076
:10316000FB6897F88A201A717B680C331B78303B18
:10317000DAB2FB685A7397F88A3003F113023B689E
:103180001A6062E00023C7F88C3018E0D7F88C3062
:1031900021331A467B6813441B781A46D7F88C30C3
:1031A000C3F1030302FA03F3DAB297F88A30134447
:1031B00087F88A30D7F88C300133C7F88C30D7F8CD
:1031C0008C30032BE2DDD7F88020D7F884309A4288
:1031D00038D17B681F331B78302B33D17B68203389
:1031E0001B78302B2ED17B685A1C07F12003033348
:1031F000184611461D2201F0E1FD97F88A30C3F10F
:103200000803DB0007F14002D1187B6803F11302C9
:1032100097F88A30DB00084611461A4601F0CEFDC9
:10322000FB6897F88A201A717B681E331B78303B45
:10323000DAB2FB685A7397F88A3003F125023B68CB
:103240001A6002E0012387F88B3097F88B3018461C
:103250009037BD4680BD00BF80B487B000AF7860B6
:10326000396000237B6100233B610423FB60002362
:103270007B6125E000233B611CE07B693A681344D5
:103280007A6939680A4411787A69D0003A69024447
:1032900010467A6802441278A2F130003A69C2F10D
:1032A000070200FA02F2D2B20A44D2B21A703B69A3
:1032B00001333B613B69072BDFDD7B6901337B61B8
:1032C0007A69FB689A42D5DB1C37BD465DF8047B02
:1032D000704700BF80B487B000AF786039600023CA
:1032E0007B6100233B610823FB6000237B6125E0B9
:1032F00000233B611CE07B693A6813447A693968B2
:103300000A4411787A69D0003A69024410467A6812
:1033100002441278A2F130003A69C2F1070200FAC1
:1033200002F2D2B20A44D2B21A703B6901333B6155
:103330003B69072BDFDD7B6901337B617A69FB68C1
:103340009A42D5DB1C37BD465DF8047B704700BF51
:1033500080B487B000AF7860396000237B610023C0
:103360003B610F23FB6000237B6111E07B697A687E
:1033700013441B78A3F130027B69C3F10E0302FAF8
:1033800003F35B003A6813443B607B6901337B6164
:103390007A69FB689A42E9DB1C37BD465DF8047B1D
:1033A000704700BF90B5C5B000AF3B1D186000234B
:1033B000C7F80C310023C7F80431002387F80B311C
:1033C00007F1DC0300221A60043300221A60043380
:1033D00000221A60043300221A60043300221A60AB
:1033E000043300221A60043300221A6004330022DE
:1033F0001A6004333B1D186801F0C8FD03460F3BFB
:10340000C7F80031002387F8CC30002387F8CD308F
:10341000002387F8CE30002387F8CF30002387F8C9
:10342000D030002387F8D130002387F8D230002332
:1034300087F8D330002387F8D430002387F8D530BD
:10344000002387F8D630002387F8D730002387F889
:10345000D830002387F8D930002387F8DA30D7F83E
:1034600000313A1D12681A4407F1CC031446206853
:103470006168A26807C3A289A17B1A800A469A7074
:1034800007F1CC0207F1DC0310461946FFF760FF95
:103490000023A7F8FE300023C7F80C310BE007F13A
:1034A0000C02D7F80C31134400221A70D7F80C31F3
:1034B0000133C7F80C31D7F80C31BD2BEFDDD7F84D
:1034C000002107F10C013B1D0846196801F076FC4C
:1034D00007F10C03184600F015F80346A7F8FE3074
:1034E000B7F8FE301A4607F1DC039A4202D00123F6
:1034F00087F80B3197F80B31184607F58A77BD46E8
:1035000090BD00BF80B592B000AF78600023FB870C
:1035100000237B6408E007F10C027B6C134400225B
:103520001A707B6C01337B647B6C182BF3DD78683D
:1035300001F02CFD03463B633B6B002B00DA0733A5
:10354000DB10BB633A6B424B1340002B03DA013BA9
:1035500063F007030133FB6200237B63FB6A002BEC
:1035600007DDBB6B0133BB63BB6BDA003B6BD31A6C
:103570007B6300237B6431E07B6C002B01D17B6B90
:1035800000E000233B6423E07B6CDA003B6C1A44D0
:103590007B6BD31ABB62BB6A7A6813441B78312BEE
:1035A00013D107F10C027B6C13441A783B6CC3F106
:1035B0000703012101FA03F3DBB21344D9B207F187
:1035C0000C027B6C13440A461A703B6C01333B645B
:1035D0003B6C072BD8DD7B6C01337B647A6CBB6B57
:1035E0009A42C9DB00237B6428E007F10C027B6C64
:1035F00013441B78DB019AB2FB8F53409BB2FB87CD
:1036000000233B6410E0FB8F5B00FB87FB8F1BB24A
:10361000002B06DAFB8F83F4695383F02603DB4328
:10362000FB873B6C01333B643B6C072BEBDDFB8F73
:10363000C3F30E03FB877B6C01337B647A6CBB6B3B
:103640009A42D2DBFB8F18464837BD4680BD00BF8B
:103650000700008080B485B000AFF860B9607A6080
:10366000FB68043BFB60FB684FF080721A60FB68EC
:10367000043BFB60BA68FB681A60FB68043BFB60B4
:103680000C4AFB681A60FB68143BFB607A68FB68B5
:103690001A60FB68043BFB60FB686FF002021A6073
:1036A000FB68203BFB60FB6818461437BD465DF89D
:1036B000047B7047B936000880B500AF054B1B6826
:1036C000B3F1FF3F02D000F0C5F8FEE700F0C2F80A
:1036D000FEE700BF28000020064B19680868B0E824
:1036E000F04F80F30988BFF36F8F4FF0000080F335
:1036F000118870479000002005480068006880F33A
:10370000088862B6BFF34F8FBFF36F8F00DF00BF33
:1037100008ED00E080B584B000AF2C4BFB60FB6887
:103720001B78DBB2BB60FB68FF221A70FB681B785A
:10373000DBB2FB71FB79DBB203F00103DAB2244B9D
:103740001A70244B07221A6009E0224B1B68013BC8
:10375000204A1360FB79DBB25B00DBB2FB71FB79C3
:10376000DBB2DBB25BB2002BEFDB1A4B1B681B0238
:10377000184A1360174B1B6803F4E063154A136083
:10378000BB68DAB2FB681A70134A134B1B6843F428
:1037900070031360104A104B1B6843F070431360B2
:1037A00000F0A6F80D4B00221A6000F0BBF80C4A9E
:1037B0000B4B1B6843F040431360FFF79DFFFFF77F
:1037C0007BFF002318461037BD4680BD00E400E0B3
:1037D000780100207C01002020ED00E0280000207E
:1037E00034EF00E080B400AF054B4FF080521A6018
:1037F000BFF34F8FBFF36F8FBD465DF8047B7047FB
:1038000004ED00E080B500AF00F024F8044B1B6825
:103810000133034A1360BFF34F8FBFF36F8F80BD37
:103820002800002080B500AF094B1B68002B02D197
:1038300000F010F8FEE7064B1B68013B044A1360DA
:10384000034B1B68002B02D1002000F00DF880BD57
:1038500028000020EFF311804FF0010181F311885F
:1038600070470023184600BF80F31188704700BFDF
:10387000EFF30980BFF36F8F124B1A681EF0100F21
:1038800008BF20ED108A20E9F04F10604DF8043D8C
:103890004FF0010080F31188FDF7F4FE4FF00000B7
:1038A00080F3118808BC19680868B0E8F04F1EF072
:1038B000100F08BFB0EC108A80F30988BFF36F8F38
:1038C000704700BF9000002080B500AFFFF7C2FF37
:1038D000FDF720FE0346002B03D0044B4FF080522F
:1038E0001A600020FFF7C0FF80BD00BF04ED00E0BC
:1038F00080B400AF074A084B1B680849A1FB0313BB
:103900009B09013B1360064B07221A60BD465DF818
:10391000047B704714E000E014000020D34D6210D7
:1039200010E000E0DFF80C00016841F47001016074
:103930007047000088ED00E080B582B000AFEFF383
:1039400005837B607B680F2B0CD90D4A7B68134481
:103950001B78FB700B4B1B78FA789A4202D2FFF768
:1039600079FFFEE7084B1B6803F4E062074B1B6816
:103970009A4202D9FFF76EFFFEE70837BD4680BDC9
:10398000F0E300E0780100200CED00E07C01002075
:1039900080B584B000AF786039607B68FB60FB68FD
:1039A000002B02D1FFF756FFFEE7FFF72BFFFB6866
:1039B0001A68FB68DB6BF968096C01FB03F31A44B6
:1039C000FB685A60FB6800229A63FB681A68FB6810
:1039D0009A60FB681A68FB68DB6B013BF968096C4D
:1039E00001FB03F31A44FB68DA60FB684FF0FF3217
:1039F0005A64FB684FF0FF329A643B68002B0ED18B
:103A0000FB681B69002B14D0FB6810331846FDF7C8
:103A1000DBFE0346012B0CD1FFF7E4FE09E0FB6857
:103A200010331846FFF718F8FB6824331846FFF7E1
:103A300013F8FFF7F7FE012318461037BD4680BD87
:103A400080B588B000AFF860B9601346FB71002301
:103A5000FB61FB68002B2AD0542000F0EDFEB8611A
:103A6000BB69002B23D0FB68BA6802FB03F3013368
:103A70007B61786900F0E0FE0246BB691A60BB69B1
:103A80001B68002B10D0BB69FA68DA63BB69BA689F
:103A90001A64B8690121FFF77BFFBB69FA7983F8E3
:103AA0005020BB69FB6102E0B86900F053FFFB697D
:103AB000002B02D1FFF7CEFEFEE7FB691846203748
:103AC000BD4680BD80B584B000AF0346FB71542075
:103AD00000F0B2FEF860FB68002B30D0FB680022DB
:103AE0005A60FB6800221A60FB6800229A60FB683B
:103AF0000022DA60FB6800229A63FB680122DA6325
:103B0000FB6800221A64FB684FF0FF325A64FB68BE
:103B10004FF0FF329A64FB68FA7983F85020FB6813
:103B200010331846FEF798FFFB6824331846FEF75B
:103B300093FFF86800210022002300F00BF8FB68D7
:103B4000002B02D1FFF786FEFEE7FB681846103710
:103B5000BD4680BD80B588B000AFF860B9607A60BE
:103B60003B600023FB61FB68BB61BB69002B02D19A
:103B7000FFF770FEFEE7BB68002B03D1BB691B6C2F
:103B8000002B01D1012300E00023002B02D1FFF71D
:103B900061FEFEE73B68022B03D1BB69DB6B012BA7
:103BA00001D1012300E00023002B02D1FFF752FED8
:103BB000FEE7FEF74BF80346002B02D17B68002B93
:103BC00001D1012300E00023002B02D1FFF742FEC8
:103BD000FEE7FFF717FEBB699A6BBB69DB6B9A4286
:103BE00002D33B68022B16D1B869B9683A6800F075
:103BF00013FABB695B6A002B09D0BB6924331846F2
:103C0000FDF7E2FD0346012B01D1FFF7EBFDFFF7C6
:103C100009FE012359E07B68002B03D1FFF702FE68
:103C2000002352E0FB69002B06D107F11003184670
:103C3000FDF726FE0123FB61FFF7F4FDFDF7C4FB52
:103C4000FFF7E0FDBB695B6CB3F1FF3F02D1BB69DD
:103C500000225A64BB699B6CB3F1FF3F02D1BB6980
:103C600000229A64FFF7DEFD07F110023B1D1046AB
:103C70001946FDF71FFE0346002B1ED1B86900F060
:103C8000BBFA0346002B12D0BB6903F110027B681C
:103C900010461946FDF748FDB86900F04BFAFDF7EC
:103CA000A1FB0346002B0FD1FFF79CFD0CE0B86988
:103CB00000F040FAFDF796FB8BE7B86900F03AFA9E
:103CC000FDF790FB002300E083E718462037BD4650
:103CD00080BD00BF80B588B000AFF860B9607A6081
:103CE0003B60FB68BB61BB69002B02D1FFF7B2FDF3
:103CF000FEE7BB68002B03D1BB691B6C002B01D115
:103D0000012300E00023002B02D1FFF7A3FDFEE713
:103D10003B68022B03D1BB69DB6B012B01D1012373
:103D200000E00023002B02D1FFF794FDFEE7FFF730
:103D300003FEFFF78FFD7861BB699A6BBB69DB6B94
:103D40009A4202D33B68022B24D1B869B9683A6819
:103D500000F062F9BB699B6CB3F1FF3F12D1BB6904
:103D60005B6A002B13D0BB6924331846FDF72CFD8A
:103D70000346002B0BD07B68002B08D07B68012208
:103D80001A6004E0BB699B6C5A1CBB699A640123EE
:103D9000FB6101E00023FB617869FFF765FDFB69CA
:103DA00018462037BD4680BD80B58AB000AFF860A8
:103DB000B9607A603B6000237B62FB683B623B6AD0
:103DC000002B02D1FFF746FDFEE7BB68002B03D1B5
:103DD0003B6A1B6C002B01D1012300E00023002B68
:103DE00002D1FFF737FDFEE7FDF730FF0346002B5A
:103DF00002D17B68002B01D1012300E00023002BBE
:103E000002D1FFF727FDFEE7FFF7FCFC3B6A9B6B47
:103E1000002B3BD03B6ADB68FB61386AB96800F075
:103E200063F93B68002B1CD13B6A9B6B5A1E3B6AB3
:103E30009A633B6A1B68002B04D1FDF7F7FE02462C
:103E40003B6A5A603B6A1B69002B1BD03B6A1033EC
:103E50001846FDF7B9FC0346012B13D1FFF7C2FC4E
:103E600010E03B6AFA69DA603B6A5B6A002B09D0B2
:103E70003B6A24331846FDF7A7FC0346002B01D00C
:103E8000FFF7B0FCFFF7CEFC012366E07B68002B58
:103E900003D1FFF7C7FC00235FE07B6A002B06D14C
:103EA00007F114031846FDF7EBFC01237B62FFF7D3
:103EB000B9FCFDF789FAFFF7A5FC3B6A5B6CB3F12F
:103EC000FF3F02D13B6A00225A643B6A9B6CB3F10C
:103ED000FF3F02D13B6A00229A64FFF7A3FC07F17F
:103EE00014023B1D10461946FDF7E4FC0346002B67
:103EF0002BD1386A00F06AF90346002B1FD03B6AC9
:103F00001B68002B08D1FFF77DFC3B6A5B681846F5
:103F1000FDF7BAFEFFF786FC3B6A03F124027B68DB
:103F200010461946FDF700FC386A00F003F9FDF76A
:103F300059FA0346002B0FD1FFF754FC0CE0386A06
:103F400000F0F8F8FDF74EFA5EE7386A00F0F2F894
:103F5000FDF748FA002300E056E718462837BD462B
:103F600080BD00BF80B588B000AFF860B9607A60EE
:103F7000FB68BB61BB69002B02D1FFF76BFCFEE75E
:103F8000BB68002B03D1BB691B6C002B01D1012343
:103F900000E00023002B02D1FFF75CFCFEE7FFF7F7
:103FA000CBFCFFF757FC7861BB699B6B002B28D0DB
:103FB000B869B96800F098F8BB699B6B5A1EBB6979
:103FC0009A63BB695B6CB3F1FF3F12D1BB691B699C
:103FD000002B13D0BB6910331846FDF7F5FB0346E1
:103FE000002B0BD07B68002B08D07B6801221A6065
:103FF00004E0BB695B6C5A1CBB695A640123FB611A
:1040000001E00023FB617869FFF72EFCFB6918468D
:104010002037BD4680BD00BF80B584B000AFF860DA
:10402000B9607A60FB681B6C002B0CD1FB681B68C5
:10403000002B51D1FB685B681846FDF783FEFB68D7
:1040400000225A6048E07B68002B1AD1FB689A680E
:10405000FB681B6C1046B9681A4600F0AFFEFB689F
:104060009A68FB681B6C1A44FB689A60FB689A6844
:10407000FB685B689A422FD3FB681A68FB689A60FA
:104080002AE0FB68DA68FB681B6C1046B9681A46C0
:1040900000F094FEFB68DA68FB681B6C5B421A4414
:1040A000FB68DA60FB68DA68FB681B689A4207D233
:1040B000FB685A68FB681B6C5B421A44FB68DA6059
:1040C0007B68022B08D1FB689B6B002B04D0FB683C
:1040D0009B6B5A1EFB689A63FB689B6B5A1CFB68C0
:1040E0009A631037BD4680BD80B582B000AF78605E
:1040F00039607B681B68002B19D07B68DA687B68A5
:104100001B6C1A447B68DA607B68DA687B685B68E2
:104110009A4203D37B681A687B68DA607B68DA6846
:104120007B681B6C386811461A4600F047FE08375A
:10413000BD4680BD80B582B000AF7860FFF762FBFE
:1041400014E07B685B6A002B0AD07B682433184636
:10415000FDF73AFB0346002B03D0FDF7F3FB00E02D
:1041600008E07B689B6C5A1E7B689A647B689B6C3A
:10417000002BE6DC7B684FF0FF329A64FFF752FBBE
:10418000FFF740FB14E07B681B69002B0FD07B68B6
:1041900010331846FDF718FB0346002B01D0FDF73E
:1041A000D1FB7B685B6C5A1E7B685A6400E003E0BD
:1041B0007B685B6C002BE6DC7B684FF0FF325A6457
:1041C000FFF730FB0837BD4680BD00BF80B584B027
:1041D00000AF7860FFF716FB7B689B6B002B02D16A
:1041E0000123FB6001E00023FB60FFF71BFBFB6882
:1041F00018461037BD4680BD80B584B000AF7860EA
:10420000FFF700FB7B689A6B7B68DB6B9A4202D1FD
:104210000123FB6001E00023FB60FFF703FBFB6869
:1042200018461037BD4680BD80B485B000AF7860B9
:1042300039600023FB6014E00E4AFB6852F833300B
:10424000002B0BD10B49FB683A6841F83320094A2F
:10425000FB68DB0013447A685A6005E0FB680133B1
:10426000FB60FB68072BE7D91437BD465DF8047B7C
:10427000704700BFEC2F012080B584B000AF78609C
:1042800039607B68FB60FFF7BDFAFB685B6CB3F1DC
:10429000FF3F02D1FB6800225A64FB689B6CB3F1BC
:1042A000FF3F02D1FB6800229A64FFF7BBFAFB686C
:1042B0009B6B002B05D1FB68243318463968FDF74A
:1042C0005BFAF868FFF736FF1037BD4680BD00BFC8
:1042D00080B400AF094B00221A60084B00225A60DC
:1042E000064B00229A60054B0022DA60034B044A19
:1042F0005A61BD465DF8047B704700BF003C014039
:10430000FFFF7F0080B485B000AF78600023FB60C2
:10431000344BFB607B689B79002B4FD03149314B8C
:104320001A687B681B68DB4313400B602D492D4BDB
:104330005A687B681B68DB4313404B607B681B79C2
:104340001A46FB681344FB60FB68FA6811687A68D8
:1043500012680A431A602349224B9A687B681B68DB
:10436000DB4313408B601F491E4BDA687B681B6878
:10437000DB431340CB607B685B79102B0ED119496E
:10438000184B9A687B681B6813438B601549154B63
:10439000DA687B681B681343CB601DE0114BFB6040
:1043A0007B685B791A46FB681344FB60FB68FA681C
:1043B00011687A6812680A431A600DE07B681B79FD
:1043C0001A46FB681344FB60FB68FA6811687A6858
:1043D0001268D2430A401A601437BD465DF8047B68
:1043E000704700BF003C014080B485B000AF7860EA
:1043F0000023FB730023BB600C4B1A687B681340DF
:10440000BB600A4B5A697B681340002B05D0BB6820
:10441000002B02D00123FB7301E00023FB73FB7B25
:1044200018461437BD465DF8047B7047003C0140D8
:1044300080B483B000AF7860034A7B6853610C3767
:10444000BD465DF8047B7047003C014080B485B0F8
:1044500000AF78600023FB730023BB730F237B73D3
:104460007B68DB78002B38D0264BDB68DB4303F41A
:10447000E0631B0AFB73FB7BC3F10403BB737A7B12
:10448000FB7B42FA03F37B737B685B781A46BB7B4A
:1044900002FA03F3FB737B689A787B7B1340DAB2F2
:1044A000FB7B1343FB73FB7B1B01FB73164A7B688F
:1044B0001B781344FA7B83F80023134A7B681B782C
:1044C0005B09DBB218467B681B7803F01F030121F0
:1044D00001FA03F342F820300FE00B497B681B78A8
:1044E0005B09DBB218467B681B7803F01F030122CF
:1044F0009A4000F1200341F823201437BD465DF8AF
:10450000047B704700ED00E000E100E080B584B07E
:1045100000AF02200121FCF73BFB0323BB60A72374
:10452000BB800023BB810023FB803B1D0F48194645
:1045300000F04EFB1D233B7002237B700023BB70F9
:104540000123FB703B461846FFF780FF0748012117
:10455000012200F0D5FB0548002100F0A3FB034831
:10456000012100F0ADFB1037BD4680BD00040040C6
:1045700080B586B000AF01237B6000233B7200232F
:10458000BB7203237B720023FB7201233B61002378
:104590003B750C237B750123BB7506233B730123FD
:1045A0007B730023BB730123FB7307F10C031846D5
:1045B000FFF74CFF07F110031846FFF7A3FE3B1D62
:1045C00005481946FEF73EF901200121FCF7C2FA21
:1045D0001837BD4680BD00BF0000024080B500AF67
:1045E0000120FFF701FF0346002B06D00120FFF753
:1045F0001FFFFFF76DFEFFF789FF80BD80B582B01A
:1046000000AF00237B602B48012100F09DFB034697
:10461000002B45D0284B1B781A46284B1B69DBB270
:1046200003F00103DBB23033D9B2254B9954224B4E
:104630001B781A46224B9B5C312B06D1214B1B78F1
:104640000133DAB21F4B1A7002E01E4B00221A70BF
:10465000194B1B780133DAB2174B1A70194B1B78C0
:104660000A2B19D9174B00221A70134B1B781A46C4
:10467000134B00219954104B00221A70124B1A68E8
:104680003B1D10460E491A460023FFF723FB09483D
:1046900000F0C0F9FFF76CFF0648012100F07EFB37
:1046A0007B68002B03D0094B4FF080521A6008370B
:1046B000BD4680BD00040040800100200000024093
:1046C0008401002042020020DC2F012004ED00E0E4
:1046D00080B582B000AF02233B6001233B71002311
:1046E000BB7103237B710023FB713B4607481946CE
:1046F000FEF7A8F801200121FCF72CFA034802215B
:104700000122FEF749F90837BD4680BD000002408E
:1047100080B584B000AF04200121FCF739FA0323EF
:10472000BB60A723BB800023BB810023FB803B1D14
:104730000948194600F04CFA1E233B7002237B7097
:104740000023BB700123FB703B461846FFF77EFE3B
:104750001037BD4680BD00BF0008004080B500AFE7
:10476000FFF7D6FF06480121012200F0C9FA0448EC
:10477000002100F097FA0248012100F0A1FA80BD63
:104780000008004080B582B000AF00237B60234862
:10479000012100F0D9FA0346002B34D0204B1B78BE
:1047A000002B0BD11F4B1A683B1D10461E491A46A1
:1047B000FFF7D8FB1A4B01221A7020E01B4B1B7825
:1047C0001A46194B9B5CFF2B10D0184B1B781A46CE
:1047D000154B9B5C164802211A46FEF7DDF8134B79
:1047E0001B780133DAB2114B1A7008E00C4B00222F
:1047F0001A700E4B00221A70084800F00BF9074897
:10480000012100F0CBFA7B68002B03D0094B4FF05D
:1048100080521A600837BD4680BD00BF00080040C6
:1048200043020020E82F0120440200200203002060
:104830000000024004ED00E080B588B000AF786071
:1048400000237B61FCF7C0FD3D4B1B68002B04D1AE
:1048500000F0B8F83A4B01221A607B68002B0ED0AA
:1048600008231A467B6813447B607B6803F00703C8
:10487000002B04D07B6823F0070308337B607B6840
:10488000002B56D07B682F4A934252D82E4BBB61E7
:104890002D4B1B68FB6104E0FB69BB61FB691B6876
:1048A000FB61FB695A687B689A4203D2FB691B680B
:1048B000002BF1D1FB69254A93423AD0BB691B68B2
:1048C000082213447B61FB691A68BB691A60FB69A3
:1048D0005A687B68D31A08225200934222D9FA6997
:1048E0007B681344FB60FB695A687B68D21AFB68DB
:1048F0005A60FB697A685A60FB685B68BB60124B60
:104900003B6102E03B691B683B613B691B685A687D
:10491000BB689A42F6D33B691A68FB681A603B6928
:10492000FA681A600A4B1A68FB695B68D31A084A6E
:104930001360FCF757FD7B6918462037BD4680BDE4
:10494000142F0120F72B0100042F01200C2F012030
:104950002C00002080B586B000AF78607B683B619A
:104960007B68002B27D008235B423A6913443B61E4
:104970003B69FB60FCF728FDFB685B68BB600F4B85
:104980007B6102E07B691B687B617B691B685A68FD
:10499000BB689A42F6D37B691A68FB681A607B6928
:1049A000FA681A60FB685A68054B1B681344044A8E
:1049B0001360FCF717FD1837BD4680BD042F01209A
:1049C0002C00002080B483B000AF0E4B23F007030F
:1049D0007B600D4A7B6813600B4B00225A600B4BC7
:1049E0000B4A5A60094B00221A607B683B603B68A7
:1049F000074A5A603B68054A1A600C37BD465DF8A5
:104A0000047B70470C030020042F01200C2F012091
:104A1000F82B010080B582B000AF78607B685F4AF8
:104A2000934208D101200121FCF70CF9012000215B
:104A3000FCF708F9AFE07B68B3F1804F08D10120A3
:104A40000121FCF7E1F801200021FCF7DDF8A2E0EC
:104A50007B68534A934208D102200121FCF7D4F825
:104A600002200021FCF7D0F895E07B684D4A934284
:104A700008D104200121FCF7C7F804200021FCF72D
:104A8000C3F888E07B68484A934208D10820012196
:104A9000FCF7BAF808200021FCF7B6F87BE07B6849
:104AA000424A934208D110200121FCF7ADF81020B2
:104AB0000021FCF7A9F86EE07B683D4A934208D1DB
:104AC00020200121FCF7A0F820200021FCF79CF811
:104AD00061E07B68374A934208D102200121FCF74C
:104AE000B1F802200021FCF7ADF854E07B68324AAF
:104AF00093420AD14FF480300121FCF7A3F84FF420
:104B000080300021FCF79EF845E07B682B4A9342F9
:104B10000AD14FF400300121FCF794F84FF4003033
:104B20000021FCF78FF836E07B68254A93420AD1D2
:104B30004FF480200121FCF785F84FF480200021FC
:104B4000FCF780F827E07B681E4A934208D140209A
:104B50000121FCF759F840200021FCF755F81AE034
:104B60007B68194A934208D180200121FCF74CF858
:104B700080200021FCF748F80DE07B68134A93423F
:104B800009D14FF480700121FCF73EF84FF480709A
:104B90000021FCF739F80837BD4680BD0000014010
:104BA0000004004000080040000C004000100040DD
:104BB0000014004000040140004001400044014056
:104BC0000048014000180040001C00400020004048
:104BD00080B485B000AF786039600023FB817B68CA
:104BE0001B88FB817B68284A934213D07B68274A45
:104BF00093420FD07B68B3F1804F0BD07B68244A7F
:104C0000934207D07B68234A934203D07B68224AB1
:104C1000934208D1FB8923F07003FB813B685A88DB
:104C2000FB891343FB817B681C4A93420CD07B6851
:104C30001B4A934208D0FB8923F44073FB813B68F5
:104C40001A89FB891343FB817B68FA891A803B68C8
:104C50005A687B68DA623B681A887B681A857B68C9
:104C6000094A934203D07B68084A934204D13B68C7
:104C70009B7A9AB27B681A867B6801229A821437E3
:104C8000BD465DF8047B7047000001400004014010
:104C90000004004000080040000C004000100040EC
:104CA0000014004080B483B000AF786039607B6846
:104CB0003A685A620C37BD465DF8047B704700BF06
:104CC00080B483B000AF78600B46FB70FB78002B9C
:104CD00008D07B681B889BB243F001039AB27B68C3
:104CE0001A8007E07B681B889BB223F001039AB20D
:104CF0007B681A800C37BD465DF8047B704700BFA7
:104D000080B483B000AF78600B467B8013467B7025
:104D10007B78002B08D07B689B899AB27B881343F1
:104D20009AB27B689A8109E07B689B899AB27B88FA
:104D3000DB439BB213409AB27B689A810C37BD4625
:104D40005DF8047B704700BF80B485B000AF786029
:104D50000B467B800023FB730023BB8100237B81F8
:104D60007B681B8A9AB27B881340BB817B689B89D6
:104D70009AB27B8813407B81BB89002B05D07B894D
:104D8000002B02D00123FB7301E00023FB73FB7BAC
:104D900018461437BD465DF8047B704780B483B075
:104DA00000AF78600B467B807B88DB439AB27B68E0
:104DB0001A820C37BD465DF8047B7047844641EA91
:104DC000000313F003036DD1403A41D351F8043B83
:104DD00040F8043B51F8043B40F8043B51F8043BD5
:104DE00040F8043B51F8043B40F8043B51F8043BC5
:104DF00040F8043B51F8043B40F8043B51F8043BB5
:104E000040F8043B51F8043B40F8043B51F8043BA4
:104E100040F8043B51F8043B40F8043B51F8043B94
:104E200040F8043B51F8043B40F8043B51F8043B84
:104E300040F8043B51F8043B40F8043B51F8043B74
:104E400040F8043B51F8043B40F8043B403ABDD2E3
:104E5000303211D351F8043B40F8043B51F8043B85
:104E600040F8043B51F8043B40F8043B51F8043B44
:104E700040F8043B103AEDD20C3205D351F8043B14
:104E800040F8043B043AF9D2043208D0D2071CBFE0
:104E900011F8013B00F8013B01D30B880380604609
:104EA000704700BF082A13D38B078DD010F003037F
:104EB0008AD0C3F10403D21ADB071CBF11F8013BEF
:104EC00000F8013B80D331F8023B20F8023B7BE73E
:104ED000043AD9D3013A11F8013B00F8013BF9D269
:104EE0000B7803704B7843708B7883706046704703
:104EF00070B4840746D0541E002A41D0CDB2034678
:104F000002E0621EE4B3144603F8015B9A07F8D18D
:104F1000032C2ED9CDB245EA05250F2C45EA0545CF
:104F200019D903F110022646103E0F2E42F8105CEC
:104F300042F80C5C42F8085C42F8045C02F1100292
:104F4000F2D8A4F1100222F00F0204F00F04103284
:104F5000032C13440DD91E462246043A032A46F870
:104F6000045BFAD8221F22F003020432134404F037
:104F700003042CB1C9B21C4403F8011BA342FBD1AA
:104F800070BC704714460346C2E700BF20F003011F
:104F900010F00300C0F1000051F8043B00F1040CD4
:104FA0004FEACC0C6FF000021CBF22FA0CF2134344
:104FB0004FF0010C4CEA0C2C4CEA0C4CA3EB0C020D
:104FC00022EA030212EACC1204BF51F8043B043077
:104FD000F4D0C2F1000102EA0102B2FA82F2C2F197
:104FE0001F0200EBD2007047494400004454000007
:104FF0004546000045420000454300004541000091
:105000004944414141415254304454424242424257
:10501000424242444C38455230000000000000003B
:105020004C454431000000004C4544320000000073
:105030004C454433000000004C454434000000005F
:1050400055736172745461736B00000050726F632A
:105050006573735461736B0050726F63657373543F
:1050600061736B496E6A00000A43414E2076302E10
:10507000390A00000000000000000000546D72209A
:1050800053766300546D72510000000049444C4552
:04509000000000001C
:1050940000000000010203040102030406070809DA
:1050A400FFFFFFFF007A030A000000000000000079
:1050B4000102030406070809AAAAAAAAF82B0100F8
:0400000508000000EF
:00000001FF
